:020000020000FC
:0200000004C03A
:0200040027C013
:100008002EC00AE00093690003E00DBB78940FEF5F
:100018000DBF01E20EBF00270AB90FEF0BB901B9F6
:1000280030FD0AC050E80FEF152F40FD102712B918
:100038001FD05695C0F7F4CF51E00FEF152F40FDB4
:10004800102712B915D0550FC0F7EACF0F930FB785
:100058000F930FEF30270F910FBF0F9118950F9344
:100068000FB70F930FEF40270F910FBF0F91189500
:1000780000E11FEF2FEF2A95F1F71A95D9F70A95A6
:04008800C1F708951F
:00000001FF
