:020000020000FC
:0200000004C03A
:0200040027C013
:100008002EC00FE00093690003E00DBB0FEF0DBF9A
:1000180001E20EBF00270AB907B90FEF0FEF04B9C5
:1000280008B9789420FD09C040E80FEF30FD042797
:1000380045B91ED04695C8F7F5CF41E00FEF30FD22
:10004800042745B915D04695C8F7ECCF0F930FB7DD
:100058000F930FEF20270F910FBF0F9118950F9354
:100068000FB70F930FEF30270F910FBF0F91189510
:0E0078000FEF1FEF1A95F1F70A95D9F70895CB
:00000001FF
