:020000020000FC
:0200000004C03A
:0200040028C012
:100008002FC00AE00093690003E00DBB78940FEF5E
:100018000DBF01E20EBF00270AB907B94FEF0FEF76
:100028000BB901B908B940FDFECF30E80FEF32B97E
:100038001FD03695D8F706B11127041729F011E01B
:10004800110F0A95E9F71A9512B94FEFECCF0F93F4
:100058000FB70F9306B102B90F910FBF0F91189503
:100068000F930FB70F9344270F910FBF0F91189558
:1000780000E11FEF2FEF2A95F1F71A95D9F70A95A6
:04008800C1F708951F
:00000001FF
